{
  "contractName": "MyToken",
  "abi": [
    {
      "inputs": [],
      "payable": false,
      "stateMutability": "nonpayable",
      "type": "constructor"
    },
    {
      "anonymous": false,
      "inputs": [
        {
          "indexed": false,
          "name": "",
          "type": "address"
        },
        {
          "indexed": false,
          "name": "",
          "type": "uint256"
        }
      ],
      "name": "transaction",
      "type": "event"
    },
    {
      "constant": false,
      "inputs": [
        {
          "name": "_to",
          "type": "address"
        },
        {
          "name": "_amount",
          "type": "uint256"
        }
      ],
      "name": "transfer",
      "outputs": [],
      "payable": false,
      "stateMutability": "nonpayable",
      "type": "function"
    },
    {
      "constant": true,
      "inputs": [],
      "name": "getBalance",
      "outputs": [
        {
          "name": "",
          "type": "uint256"
        }
      ],
      "payable": false,
      "stateMutability": "view",
      "type": "function"
    }
  ],
  "bytecode": "0x608060405234801561001057600080fd5b506127106000803373ffffffffffffffffffffffffffffffffffffffff1673ffffffffffffffffffffffffffffffffffffffff16815260200190815260200160002081905550610242806100656000396000f30060806040526004361061004c576000357c0100000000000000000000000000000000000000000000000000000000900463ffffffff16806312065fe014610051578063a9059cbb1461007c575b600080fd5b34801561005d57600080fd5b506100666100c9565b6040518082815260200191505060405180910390f35b34801561008857600080fd5b506100c7600480360381019080803573ffffffffffffffffffffffffffffffffffffffff1690602001909291908035906020019092919050505061010f565b005b60008060003373ffffffffffffffffffffffffffffffffffffffff1673ffffffffffffffffffffffffffffffffffffffff16815260200190815260200160002054905090565b806000803373ffffffffffffffffffffffffffffffffffffffff1673ffffffffffffffffffffffffffffffffffffffff16815260200190815260200160002060008282540392505081905550806000808473ffffffffffffffffffffffffffffffffffffffff1673ffffffffffffffffffffffffffffffffffffffff168152602001908152602001600020600082825401925050819055507fa088ceb626d7ab77e5c39d79be36e959ac77a2563e711bdfce14bc1b862936918282604051808373ffffffffffffffffffffffffffffffffffffffff1673ffffffffffffffffffffffffffffffffffffffff1681526020018281526020019250505060405180910390a150505600a165627a7a72305820ec26e312c1df389d852670cc392b7ae165aee289b53c59e036021ec3fb0596de0029",
  "source": "pragma solidity ^0.4.23;\r\n\r\ncontract MyToken {\r\n    mapping (address => uint) balanceOf;\r\n\r\n    event transaction(address,uint);\r\n    \r\n    constructor() public{\r\n        balanceOf[msg.sender] = 10000;\r\n    }\r\n    function transfer(address _to, uint _amount) public{\r\n        balanceOf[msg.sender] -= _amount;\r\n        balanceOf[_to] += _amount;\r\n        emit transaction(_to,_amount);\r\n    }\r\n    function getBalance() public view returns(uint){\r\n    \treturn balanceOf[msg.sender];\r\n    }\r\n}\r\n",
  "sourcePath": "C:\\Users\\Prem's\\learning\\dapps\\election\\contracts\\MyToken.sol",
  "compiler": {
    "name": "solc",
    "version": "0.4.24+commit.e67f0147.Emscripten.clang"
  },
  "schemaVersion": "2.0.1",
  "updatedAt": "2018-09-17T05:17:57.033Z"
}